:10000000B5C0CFC0CEC0CDC0CCC0CBC0CAC0C9C0A7
:10001000C8C0C7C0C6C0C5C0C4C0C3C0C2C0C1C0BC
:10002000C0C0BFC0BEC0084AD73B3BCE016E84BC37
:10003000BFFDC12F3D6C74319ABD56833DDA3D0042
:10004000C77F11BED9E4BB4C3E916BAAAABE00008B
:1000500000803F05A84CCDB2D44EB93836A9020C69
:1000600050B9918688083CA6AAAA2ABE0000008042
:100070003F0000407A10F35A00A0724E1809001099
:10008000A5D4E80000E87648170000E40B5402000D
:1000900000CA9A3B000000E1F50500008096980038
:1000A000000040420F000000A08601000000102761
:1000B00000000000E80300000000640000000000F1
:1000C0000A00000000000100000000002C76D88823
:1000D000DC674F0823DFC1DFAE59E1B1B796E5E336
:1000E000E453C63AE651997696E8E6C28426EB894F
:1000F0008C9B62ED407C6FFCEFBC9C9F40F2BAA5EC
:100100006FA5F490055A2AF75C936B6CF9676DC183
:100110001BFCE0E40D47FEF520E6B500D0ED902E87
:100120000300943577050080841E080000204E0AE5
:10013000000000C80C333333330F986E1283114123
:10014000EF8D2114893BE65516CFFEE6DB18D184EE
:100150004B381BF77C1D901DA4BBE4242032847215
:100160005E228100C9F124ECA1E53D2711241FBEC8
:10017000CFE5D4E0DEBFCDBF10E0A0E6B0E0EEE317
:10018000F7E102C005900D92A639B107D9F720E03A
:10019000A6E9B0E001C01D92A23CB207E1F738D158
:1001A000CCCA2ECF6034D0F44034C0F4242F26952E
:1001B0002695269570E030E4239F600D711D112473
:1001C000FC01E60FF71F477081E090E002C0880F46
:1001D000991F4A95E2F79081892B80830895FF92B9
:1001E0000F931F93CF93DF93222361F0C42FF62E3A
:1001F0008C01D22FD40F4C2F6F2DC801D3DFCF5FCE
:10020000CD13F9CFDF91CF911F910F91FF900895FA
:10021000FF920F931F93CF93DF93222361F0F42E6D
:10022000C62F8C01D22FD60F4F2D6C2FC801BADFED
:10023000CF5FCD13F9CFDF91CF911F910F91FF9039
:100240000895CF92DF92EF92FF920F931F93CF9377
:10025000DF93EC01F62E142FD22EE22EE61AE39451
:10026000C02EC41A2E2DD4DF2E2D402F6F2DCE017F
:10027000CFDF2C2D412F6F2DCE01B1DF2C2D412F43
:100280006D2DCE01ACDFDF91CF911F910F91FF90CB
:10029000EF90DF90CF900895FC019E5F1192E817D8
:1002A000F907E1F70895CF93DF93EC019E5FE9D260
:1002B000CE01F2DFDF91CF910895462FBC019E5F02
:1002C00035D308950895FC01608311B888E480B99E
:1002D0000895FC0184EA86BF06B607FEFDCF91B102
:1002E000987F9183983011F0903189F4808183B99F
:1002F00084E886BF06B607FEFDCF91B1987F918353
:10030000983139F081E0903429F480E0089581E05B
:10031000089580E00895FC0163B984E886BF06B6BD
:1003200007FEFDCF91B1987F918381E0983209F467
:1003300080E0089584E986BF06B604FCFDCF0895E9
:1003400084E886BF06B607FEFDCF83B108950F93FC
:100350001F93CF93DF93EC01062F142FBADF602F8A
:10036000CE01D9DF612FCE01D6DFCE01E3DFDF91F1
:10037000CF911F910F9108950F931F93CF93DF9308
:10038000EC01A0DF8E010E5F1F4FC8019BDF62E30F
:10039000CE0199DF63E3C80196DF47E360E2CE0157
:1003A000D6DFDF91CF911F910F9108951F93CF93C7
:1003B000DF93EC01162F8DDF612FCE01ACDFCE0174
:1003C000B9DF2296CE0185DFCE01BADF182FCE012C
:1003D000B1DF812FDF91CF911F910895FF920F938D
:1003E0001F93CF93DF938C01F42EE0DFC82FD0E072
:1003F0006F2DC801DBDF082E000C990B982F882782
:100400008C2B9D2BDF91CF911F910F91FF90089521
:10041000CF93DF93CDB7DEB7C851D2400FB6F89473
:10042000DEBF0FBECDBFCE0101962BD2CE0103960B
:10043000A3DFCE01079637DF89E190E0CED2CE016F
:1004400007962ADF60E0CE01079637DF61E0CE0134
:10045000079633DF11E08FE39CE90197F1F700C0C5
:1004600000004DE26CE2CE010396B8DF9093A50048
:100470008093A4004BE26AE2CE010396AFDF909333
:10048000A7008093A60049E268E2CE010396A6DFAA
:100490006C019093A9008093A8008090A400909094
:1004A000A500092C000CAA08BB088091AA00909115
:1004B000AB00A091AC00B091AD00880E991EAA1EB1
:1004C000BB1E8092AA009092AB00A092AC00B092AA
:1004D000AD008091A6009091A700092E000CAA0BF8
:1004E000BB0B4091AE005091AF006091B000709195
:1004F000B1002C013D01440E551E661E771EC3013E
:10050000B2014092AE005092AF006092B000709283
:10051000B1000D2C000CEE08FF084090B200509086
:10052000B3006090B4007090B500C40CD51CE61CFC
:10053000F71CC092B200D092B300E092B400F092E7
:10054000B500209197002F5F2093970040906000A6
:1005500030E0442D50E0415051092417350709F08F
:100560007ACF512C612C712C109297001092AA0016
:100570001092AB001092AC001092AD001092AE0041
:100580001092AF001092B0001092B1001092B20021
:100590001092B3001092B4001092B500A301920122
:1005A000FED5B901330F880B990B34D4CF5EDD4FE4
:1005B000688379838A839B83C151D2408ED5C75F7C
:1005C000DD4F688379838A839B83C950D240C501FC
:1005D000B401A3019201E3D5B901330F880B990B44
:1005E00019D4CB5EDD4F688379838A839B83C551A1
:1005F000D24073D5C35FDD4F688379838A839B8341
:10060000CD50D240C35FDD4F288139814A815B8163
:10061000CD50D240C75FDD4F688179818A819B814F
:10062000C950D24096D21BD54B015C01C701B6011F
:10063000A3019201B4D5B901330F880B990BEAD30A
:100640006B017C01A5019401F7D220E030E044E386
:1006500053E498D42BED3FE049E450E440D320919B
:100660009C0030919D0040919E0050919F0071D25E
:100670004B015C016093BE007093BF008093C0008B
:100680009093C100C701B60128D56B017C01A70179
:100690009601C35FDD4F688179818A819B81CD504E
:1006A000D24057D2DCD49B01AC01CF5EDD4F6881D4
:1006B00079818A819B81C151D240BED220E030E055
:1006C00044E353E45FD42BED3FE049E450E407D327
:1006D0002091A0003091A1004091A2005091A30070
:1006E00038D22B013C016093BA007093BB00809319
:1006F000BC009093BD00A7019601C75FDD4F6881E4
:1007000079818A819B81C950D24023D2A8D4CB5E03
:10071000DD4F288139814A815B81C551D2408CD21D
:1007200020E030E044E353E42DD42BED3FE049E4F6
:1007300050E4D5D2209198003091990040919A00D0
:1007400050919B0006D26B017C016093B6007093C0
:10075000B7008093B8009093B900C301B20127D3CA
:100760002B013C01CB01552024F4882799278419BB
:1007700095098734910514F010939600C20187966D
:100780008F34910510F410929600C701B6010FD373
:100790006B017C01C501B4010AD3DC01CB012091BE
:1007A0009600A601B2012ED1CE01079675DD04E2B6
:1007B00024E24CE16CE1CE01079643DD2BED3FE0F6
:1007C00049E450E46091BA007091BB008091BC0094
:1007D0009091BD00D7D320E030E044E353E47FD2D2
:1007E00034D46B017C012BED3FE049E450E460918F
:1007F000BE007091BF008091C0009091C100C2D333
:1008000020E030E044E353E46AD21FD44B015C01A2
:1008100020E030E040E052E4C701B601B3D320E06D
:1008200030E040E052E495D1C7D2F62E20E030E02F
:1008300040E052E4C501B401A5D3B9D2605E4F2DAA
:10084000CE010796AFDC60E0CE01079636DDCE0123
:10085000079622DD612FCE0107962FDDFCCD1F9379
:10086000CF93DF93EC01162F34DD60E0CE0153DD32
:10087000612FCE0150DDCE015DDDDF91CF911F9163
:100880000895CF93DF93EC011DDD68E7CE011BDDFA
:100890006EEACE01E4DF65EDCE01E1DF60E8CE0176
:1008A000DEDF68EACE01DBDF6FE3CE01D8DF63ED88
:1008B000CE01D5DF60E0CE01D2DF60E4CE01CFDF34
:1008C0006DE8CE01CCDF64E1CE01C9DF60E2CE018C
:1008D000C6DF60E0CE01C3DF61EACE01C0DF68ECB5
:1008E000CE01BDDF6AEDCE01BADF62E1CE01B7DF36
:1008F00061E8CE01B4DF6FECCE01B1DF69EDCE016E
:10090000AEDF61EFCE01ABDF6BEDCE01A8DF60E4BF
:10091000CE01A5DF64EACE01A2DF66EACE019FDF49
:100920006FEACE019CDFDF91CF910895CF92DF92E5
:10093000EF92FF920F931F93CF93DF93082F192FFE
:100940007B01C42F61E28BDFCC2349F060E4802F70
:10095000912F85DF6FE7802F912F81DF08C060E046
:10096000802F912F7CDF6FE3802F912F78DF62E261
:10097000802F912F74DF60E0802F912F70DF67E070
:10098000802F912F6CDFE7018EEFF81A802F912FC7
:10099000A0DC60E4802F912FBEDC6E0180E1C80EE8
:1009A000D11C6991802F912FB6DCCC15DD05C9F7DC
:1009B000802F912FBFDCE601EC14FD0439F7DF91A5
:1009C000CF911F910F91FF90EF90DF90CF900895FE
:1009D0005D9BFECF50988CB9089590BD89B988E988
:1009E0008AB986E880BD0895CF93DF93EC018881B2
:1009F000882329F02196ECDF89918111FCCFDF91CA
:100A0000CF9108958F929F92BF92CF92DF92EF92F3
:100A1000FF920F931F93CF93DF93CDB7DEB7EA9783
:100A20000FB6F894DEBF0FBECDBF4B016A01B22EE8
:100A300027E0E1E6F0E0AE014F5F5F4F7A01DA01B7
:100A400001900D922A95E1F7FE01389621E2DF012F
:100A50001D922A95E9F7BC01990F880B990BDAD101
:100A60008E01075D1F4F21E043E0D7D3B801C701D6
:100A7000F3D3D7010D900020E9F7119787E0E9E85B
:100A8000F0E001900D928A95E1F7B401990C880B82
:100A9000990BC0D10A5F1F4F21E043E0BED3B801DC
:100AA000C701DAD3D7010D900020E9F7119786E04E
:100AB000E0E9F0E001900D928A95E1F7B601DD0CD6
:100AC000880B990BA7D10A5F1F4F21E043E0A5D304
:100AD000B801C701C1D3B1100EC0F70101900020C9
:100AE000E9F7319780E298E49183808380E290E097
:100AF000938382830EC0FE01319601900020E9F7B6
:100B0000319780E296E59183808380E290E0938341
:100B10008283CE010196FC0101900020E9F7319714
:100B20002DE03AE03183208312825EDFEA960FB631
:100B3000F894DEBF0FBECDBFDF91CF911F910F9113
:100B4000FF90EF90DF90CF90BF909F908F9008958F
:100B50005058BB27AA270ED0D4C1C5D130F0CAD176
:100B600020F031F49F3F11F41EF495C10EF4E0958E
:100B7000E7FB8BC1E92FD6D180F3BA176207730761
:100B80008407950718F071F49EF5EEC10EF4E09518
:100B90000B2EBA2FA02D0B01B90190010C01CA0137
:100BA000A0011124FF27591B99F0593F50F4503EE2
:100BB00068F11A16F040A22F232F342F4427585FD4
:100BC000F3CF469537952795A795F0405395C9F7EC
:100BD0007EF41F16BA0B620B730B840BBAF09150A4
:100BE000A1F0FF0FBB1F661F771F881FC2F70EC043
:100BF000BA0F621F731F841F48F487957795679516
:100C0000B795F7959E3F08F0B3CF9395880F08F0FE
:100C10009927EE0F97958795089565D158F080E84C
:100C200091E009F49EEF66D128F040E851E059F4D4
:100C30005EEF09C030C198C1E92FE07873D168F345
:100C4000092E052AC1F3261737074807590738F038
:100C50000E2E07F8E02569F0E025E0640AC0EF6396
:100C600007F8009407FADB01B9019D01DC01CA0114
:100C7000AD01EF9343D045D10AD05F91552331F0B8
:100C80002BED3FE049E450FD49EC63CF0895DF933D
:100C9000DD27B92FBF7740E85FE316161706480730
:100CA0005B0710F4D92F67D19F938F937F936F9336
:100CB00014D2E6E2F0E0F2D024D12F913F914F918F
:100CC0005F916CD1DD2349F09058A2EA2AED3FE014
:100CD00049EC5FE3D0785D274DDFDF9112C10CD086
:100CE00010C108D140F0FFD030F021F45F3F19F07F
:100CF000CCC051113AC1CFC015D198F39923C9F393
:100D00005523B1F3951B550BBB27AA276217730711
:100D1000840738F09F5F5F4F220F331F441FAA1FC5
:100D2000A9F333D00E2E3AF0E0E830D09150504085
:100D3000E695001CCAF729D0FE2F27D0660F771F33
:100D4000881FBB1F261737074807AB07B0E809F015
:100D5000BB0B802DBF01FF2793585F4F2AF09E3FAA
:100D6000510568F092C001C15F3FECF3983EDCF39F
:100D7000869577956795B795F7959F5FC9F7880F23
:100D8000911D9695879597F90895E1E0660F771F75
:100D9000881FBB1F621773078407BA0720F0621B06
:100DA000730B840BBA0BEE1F88F7E095089504D0FF
:100DB0006894B111DAC00895BDD088F09F5790F0C3
:100DC000B92F9927B751A0F0D1F0660F771F881F70
:100DD000991F1AF0BA95C9F712C0B13081F0C4D08A
:100DE000B1E00895C1C0672F782F8827B85F39F028
:100DF000B93FCCF3869577956795B395D9F73EF4CF
:100E000090958095709561957F4F8F4F9F4F089576
:100E1000E89409C097FB3EF4909580957095619594
:100E20007F4F8F4F9F4F9923A9F0F92F96E9BB274A
:100E30009395F695879577956795B795F111F8CFC6
:100E4000FAF4BB0F11F460FF1BC06F5F7F4F8F4F31
:100E50009F4F16C0882311F096E911C0772321F027
:100E60009EE8872F762F05C0662371F096E8862FBF
:100E700070E060E02AF09A95660F771F881FDAF716
:100E8000880F9695879597F9089597F99F6780E859
:100E900070E060E008959FEF80EC0895DF93CF93BA
:100EA0001F930F93FF92EF92DF927B018C01689466
:100EB00005C0DA2EEF0172D0FE01E894A5912591CC
:100EC000359145915591AEF3EF0154DEFE01970146
:100ED000A801DA9479F7DF90EF90FF900F911F91BE
:100EE000CF91DF91089500240A941616170618066C
:100EF0000906089500240A9412161306140605061E
:100F00000895092E0394000C11F4882352F0BB0FAE
:100F100040F4BF2B11F460FF04C06F5F7F4F8F4F11
:100F20009F4F089557FD9058440F551F59F05F3F4C
:100F300071F04795880F97FB991F61F09F3F79F0FB
:100F400087950895121613061406551FF2CF46957D
:100F5000F1DF08C0161617061806991FF1CF8695FF
:100F60007105610508940895E894BB2766277727E3
:100F7000CB0197F908959B01AC0160E070E080E837
:100F80009FE3ADCE0BD0BDCFAEDF28F0B3DF18F0BE
:100F9000952309F07ACF7FCF1124E7CFC3DFA0F3E9
:100FA000959FD1F3950F50E0551F629FF001729FFE
:100FB000BB27F00DB11D639FAA27F00DB11DAA1F1D
:100FC000649F6627B00DA11D661F829F2227B00D6A
:100FD000A11D621F739FB00DA11D621F839FA00DF5
:100FE000611D221F749F3327A00D611D231F849F45
:100FF000600D211D822F762F6A2F11249F5750409C
:101000008AF0E1F088234AF0EE0FFF1FBB1F661F36
:10101000771F881F91505040A9F79E3F510570F0EF
:1010200034CFA3CF5F3FECF3983EDCF38695779502
:101030006795B795F795E7959F5FC1F7FE2B880FEA
:10104000911D9695879597F908959F935FD00F907E
:1010500007FCEE5F82C011F40EF41DCF41C06ADFC1
:10106000D0F39923D9F3CEF39F57550B87FF46D082
:101070000024A0E640EA900180585695979528F400
:10108000805C660F771F881F20F0261737074807F8
:1010900030F4621B730B840B202931294A2BA6954F
:1010A00017940794202531254A2758F7660F771F94
:1010B000881F20F026173707480730F4620B730BA0
:1010C000840B200D311D411DA09581F7B901842F9E
:1010D0009158880F9695879508959B01AC0152CF42
:1010E0009F3F31F0915020F4879577956795B7959C
:1010F000880F911D9695879597F9089591505040C6
:10110000660F771F881FD2F70895C5CE13DFE8F367
:10111000E894E0E0BB279F57F0F02AED3FE049EC70
:1011200006C0EE0FBB0F661F771F881F28F0B23A6C
:1011300062077307840728F0B25A620B730B840BA3
:10114000E3959A9572F7803830F49A95BB0F661F35
:10115000771F881FD2F79048C5CFEF93E0FF06C0F6
:10116000A2EA2AED3FE049EC5FEB04DDCADE0F9016
:10117000039401FC9058E3E5F0E000C09F938F9347
:101180007F936F93FF93EF939B01AC01FBDEEF9195
:10119000FF9184DE2F913F914F915F91F3CE052E09
:1011A00097FB16F400940FD057FD05D014D007FC20
:1011B00002D046F408C050954095309521953F4F98
:1011C0004F4F5F4F089590958095709561957F4F33
:1011D0008F4F9F4F0895A1E21A2EAA1BBB1BFD0142
:1011E0000DC0AA1FBB1FEE1FFF1FA217B307E40706
:1011F000F50720F0A21BB30BE40BF50B661F771F5E
:10120000881F991F1A9469F760957095809590953D
:101210009B01AC01BD01CF010895EF920F931F9385
:10122000CF93DF93E80147FD02C034E001C034E111
:10123000042E000C550B57FF03C0519541955109E1
:10124000E32E022F242FAE0112D0CE01DF91CF91D9
:101250001F910F91EF900895FB01DC010D9000208C
:10126000E9F7119701900D920020E1F70895A9E0A8
:10127000B0E0ECE3F9E030C26A01122FB02E2BE3AC
:10128000201720F0FF24F394F00E02C02CE3F22E7E
:101290000F2D27E0AE014F5F5F4F40D1BC01498168
:1012A000842F8970813031F0E1FC06C0E0FE06C079
:1012B00090E205C09DE203C09BE201C090E05E2D7C
:1012C000507143FF3CC0911102C083E001C084E033
:1012D000811718F4212F281B01C020E051110BC0E9
:1012E000F601822F30E2882319F031938150FBCF31
:1012F000C20ED11C20E0992329F0D6019C93F6015F
:1013000031966F01C6010396E2FE0AC03EE4D601A3
:101310003C9341E411964C93119712963C9306C06E
:101320003EE6F601308341E641833283FC01322FF1
:1013300040E2332309F442C041933150FACF42FFD7
:1013400044C0911102C083E001C084E0811718F409
:10135000212F281B01C020E051110BC0F601822F64
:1013600030E2882319F031938150FBCFC20ED11C9B
:1013700020E0992329F0D6019C93F60131966F0164
:10138000C6010396E2FE0BC039E4D6013C933EE46D
:1013900011963C93119736E412963C9307C039E6B8
:1013A000F60130833EE6318336E63283FC01322F8C
:1013B00040E2332319F041933150FBCFFC01E20F9F
:1013C000F11D10828EEF9FEFA6C021E030E0911159
:1013D00002C020E030E0161617061CF4FB0131961F
:1013E00002C0E1E0F0E02E0F3F1FBB2021F0EB2D0B
:1013F000F0E0319602C0E0E0F0E02E0F3F1FE12F59
:10140000F0E02E173F071CF4121B212F01C020E033
:101410008E2D887159F4F601822F30E2882319F05D
:1014200031938150FBCFC20ED11C20E0992329F0CB
:10143000D6019C93F60131966F0151110BC0F60154
:10144000822F90E3882319F091938150FBCFC20E35
:10145000D11C20E00F2D060F9A81342F307144FFEC
:1014600003C0913309F40150101624F4093018F028
:1014700008E001C001E0AB0177FF02C040E050E0AE
:10148000FB01E41BF50BA1E0B0E0AC0FBD1FEA0FC0
:10149000FB1F8EE2A82E4B01801A91080B2D10E045
:1014A0001195019511094F3FBFEF5B0721F4D6015C
:1014B000AC9211966D01641775072CF08416950691
:1014C00014F4818101C080E3415051093196D60165
:1014D00011967D014017510724F0D6018C936701C6
:1014E000E2CF6417750739F4963320F4953319F475
:1014F000311101C081E3F6018083F701822F90E270
:10150000882319F091938150FBCFF701E20FF11D71
:10151000108280E090E02996ECE0FAC0283008F0D4
:1015200027E03327DA01990F311D87FD916000967E
:101530006105710539F432602E5F3D9330E32A95E1
:10154000E1F708959F3F30F080387105610509F09B
:101550003C5F3C5F3D93913008F08068911DDF93C4
:10156000CF931F930F93FF92EF92192F987F969529
:10157000E92F96959695E90FFF27E453FF4F99279A
:101580003327EE24FF24A701E70105900894079470
:1015900028F4360FE71EF81E491F511D660F771FEE
:1015A000881F991F0694A1F70590079428F4E70E69
:1015B000F81E491F561FC11D770F881F991F661FF0
:1015C0000694A1F70590079428F4F80E491F561FBA
:1015D000C71FD11D880F991F661F771F0694A1F79B
:1015E0000590079420F4490F561FC71FD81F990F65
:1015F000661F771F881F0694A9F7849110951770AE
:1016000041F0D695C79557954795F794E7941A9565
:10161000C1F7E2E7F0E06894159015913591659176
:10162000959105907FE27395E118F10A430B560BF3
:10163000C90BD009C0F7E10CF11E431F561FC91F8B
:10164000D01D7EF4703311F48A95E6CFE8940150F2
:1016500030F0080F0AF40027021708F4202F239512
:10166000022F7A3328F079E37D932A95E9F710C0A9
:101670007D932A9589F606949795679537951795E2
:101680001794E118F10A430B560BC90BD00998F0D7
:1016900023957E9173957A3308F070E37C93201341
:1016A000B8F77E9170617D9330F0839571E37D93FF
:1016B00070E32A95E1F71124EF90FF900F911F91AD
:1016C000CF91DF91992787FD909508952F923F92B2
:1016D0004F925F926F927F928F929F92AF92BF9242
:1016E000CF92DF92EF92FF920F931F93CF93DF93EE
:1016F000CDB7DEB7CA1BDB0B0FB6F894DEBF0FBE4B
:10170000CDBF09942A88398848885F846E847D8497
:101710008C849B84AA84B984C884DF80EE80FD8099
:101720000C811B81AA81B981CE0FD11D0FB6F8940F
:0E173000DEBF0FBECDBFED010895F894FFCFD0
:10173E000A70697463682000000000000000000059
:10174E00000000000000000000000000000000008B
:10175E0000000000000000000020726F6C6C200082
:06176E00207961772000E4
:00000001FF
